{
  "contractName": "Counterfeit",
  "abi": [
    {
      "anonymous": false,
      "inputs": [
        {
          "indexed": true,
          "internalType": "address",
          "name": "owner",
          "type": "address"
        },
        {
          "indexed": false,
          "internalType": "string",
          "name": "name",
          "type": "string"
        },
        {
          "indexed": false,
          "internalType": "string",
          "name": "registrationNumber",
          "type": "string"
        }
      ],
      "name": "CompanyCreated",
      "type": "event"
    },
    {
      "anonymous": false,
      "inputs": [
        {
          "indexed": true,
          "internalType": "address",
          "name": "owner",
          "type": "address"
        },
        {
          "indexed": false,
          "internalType": "string",
          "name": "name",
          "type": "string"
        },
        {
          "indexed": false,
          "internalType": "string",
          "name": "description",
          "type": "string"
        },
        {
          "indexed": false,
          "internalType": "uint96",
          "name": "productId",
          "type": "uint96"
        }
      ],
      "name": "ProductAdded",
      "type": "event"
    },
    {
      "inputs": [
        {
          "internalType": "string",
          "name": "_name",
          "type": "string"
        }
      ],
      "name": "createCompany",
      "outputs": [
        {
          "internalType": "string",
          "name": "",
          "type": "string"
        }
      ],
      "stateMutability": "nonpayable",
      "type": "function"
    },
    {
      "inputs": [
        {
          "internalType": "string",
          "name": "_regNumber",
          "type": "string"
        },
        {
          "internalType": "string",
          "name": "_name",
          "type": "string"
        },
        {
          "internalType": "string",
          "name": "_description",
          "type": "string"
        }
      ],
      "name": "createProduct",
      "outputs": [
        {
          "internalType": "uint96",
          "name": "",
          "type": "uint96"
        }
      ],
      "stateMutability": "nonpayable",
      "type": "function"
    },
    {
      "inputs": [
        {
          "internalType": "uint96",
          "name": "_productId",
          "type": "uint96"
        }
      ],
      "name": "getProductById",
      "outputs": [
        {
          "internalType": "string",
          "name": "",
          "type": "string"
        },
        {
          "internalType": "string",
          "name": "",
          "type": "string"
        }
      ],
      "stateMutability": "view",
      "type": "function",
      "constant": true
    },
    {
      "inputs": [],
      "name": "getCompanyProductIds",
      "outputs": [
        {
          "internalType": "uint96[]",
          "name": "",
          "type": "uint96[]"
        },
        {
          "internalType": "string[]",
          "name": "",
          "type": "string[]"
        }
      ],
      "stateMutability": "view",
      "type": "function",
      "constant": true
    },
    {
      "inputs": [
        {
          "internalType": "string",
          "name": "_regNumber",
          "type": "string"
        }
      ],
      "name": "getProductsByRegNumber",
      "outputs": [
        {
          "components": [
            {
              "internalType": "string",
              "name": "name",
              "type": "string"
            },
            {
              "internalType": "uint96",
              "name": "productId",
              "type": "uint96"
            },
            {
              "internalType": "string",
              "name": "description",
              "type": "string"
            }
          ],
          "internalType": "struct Counterfeit.Product[]",
          "name": "",
          "type": "tuple[]"
        }
      ],
      "stateMutability": "view",
      "type": "function",
      "constant": true
    }
  ],
  "bytecode": "0x608060405234801561001057600080fd5b50612929806100206000396000f3fe608060405234801561001057600080fd5b50600436106100575760003560e01c80630403e4771461005c578063634266401461008c578063d768468b146100bd578063f70771b8146100ed578063fd7f611e1461010c575b600080fd5b6100766004803603810190610071919061174f565b61013c565b6040516100839190611957565b60405180910390f35b6100a660048036038101906100a191906119a5565b61055f565b6040516100b4929190611a1c565b60405180910390f35b6100d760048036038101906100d29190611a53565b6107ec565b6040516100e49190611b09565b60405180910390f35b6100f5610ccd565b604051610103929190611c95565b60405180910390f35b6101266004803603810190610121919061174f565b6110d4565b6040516101339190611ccc565b60405180910390f35b606060006001836040516101509190611d2a565b908152602001604051809103902060009054906101000a900473ffffffffffffffffffffffffffffffffffffffff169050600073ffffffffffffffffffffffffffffffffffffffff168173ffffffffffffffffffffffffffffffffffffffff16036101f0576040517f08c379a00000000000000000000000000000000000000000000000000000000081526004016101e790611d8d565b60405180910390fd5b6000600360008373ffffffffffffffffffffffffffffffffffffffff1673ffffffffffffffffffffffffffffffffffffffff1681526020019081526020016000208054806020026020016040519081016040528092919081815260200182805480156102b757602002820191906000526020600020906000905b82829054906101000a90046bffffffffffffffffffffffff166bffffffffffffffffffffffff16815260200190600c0190602082600b0104928301926001038202915080841161026a5790505b505050505090506000815167ffffffffffffffff8111156102db576102da611624565b5b60405190808252806020026020018201604052801561031457816020015b6103016115c6565b8152602001906001900390816102f95790505b50905060005b825181101561055357600083828151811061033857610337611dad565b5b602002602001015190506000600260008773ffffffffffffffffffffffffffffffffffffffff1673ffffffffffffffffffffffffffffffffffffffff1681526020019081526020016000206000836bffffffffffffffffffffffff166bffffffffffffffffffffffff1681526020019081526020016000206040518060600160405290816000820180546103cb90611e0b565b80601f01602080910402602001604051908101604052809291908181526020018280546103f790611e0b565b80156104445780601f1061041957610100808354040283529160200191610444565b820191906000526020600020905b81548152906001019060200180831161042757829003601f168201915b505050505081526020016001820160009054906101000a90046bffffffffffffffffffffffff166bffffffffffffffffffffffff166bffffffffffffffffffffffff16815260200160028201805461049b90611e0b565b80601f01602080910402602001604051908101604052809291908181526020018280546104c790611e0b565b80156105145780601f106104e957610100808354040283529160200191610514565b820191906000526020600020905b8154815290600101906020018083116104f757829003601f168201915b50505050508152505090508084848151811061053357610532611dad565b5b60200260200101819052505050808061054b90611e75565b91505061031a565b50809350505050919050565b6060806000836bffffffffffffffffffffffff16116105b3576040517f08c379a00000000000000000000000000000000000000000000000000000000081526004016105aa90611f2f565b60405180910390fd5b6000600260003373ffffffffffffffffffffffffffffffffffffffff1673ffffffffffffffffffffffffffffffffffffffff1681526020019081526020016000206000856bffffffffffffffffffffffff166bffffffffffffffffffffffff16815260200190815260200160002060405180606001604052908160008201805461063c90611e0b565b80601f016020809104026020016040519081016040528092919081815260200182805461066890611e0b565b80156106b55780601f1061068a576101008083540402835291602001916106b5565b820191906000526020600020905b81548152906001019060200180831161069857829003601f168201915b505050505081526020016001820160009054906101000a90046bffffffffffffffffffffffff166bffffffffffffffffffffffff166bffffffffffffffffffffffff16815260200160028201805461070c90611e0b565b80601f016020809104026020016040519081016040528092919081815260200182805461073890611e0b565b80156107855780601f1061075a57610100808354040283529160200191610785565b820191906000526020600020905b81548152906001019060200180831161076857829003601f168201915b50505050508152505090506000816000015151116107d8576040517f08c379a00000000000000000000000000000000000000000000000000000000081526004016107cf90611f9b565b60405180910390fd5b806000015181604001519250925050915091565b60008060003373ffffffffffffffffffffffffffffffffffffffff1673ffffffffffffffffffffffffffffffffffffffff16815260200190815260200160002060020160009054906101000a900473ffffffffffffffffffffffffffffffffffffffff1673ffffffffffffffffffffffffffffffffffffffff163373ffffffffffffffffffffffffffffffffffffffff16146108bd576040517f08c379a00000000000000000000000000000000000000000000000000000000081526004016108b49061202d565b60405180910390fd5b6000845111610901576040517f08c379a00000000000000000000000000000000000000000000000000000000081526004016108f8906120bf565b60405180910390fd5b6000835111610945576040517f08c379a000000000000000000000000000000000000000000000000000000000815260040161093c9061212b565b60405180910390fd5b6000825111610989576040517f08c379a0000000000000000000000000000000000000000000000000000000008152600401610980906121bd565b60405180910390fd5b600060018560405161099b9190611d2a565b908152602001604051809103902060009054906101000a900473ffffffffffffffffffffffffffffffffffffffff169050600073ffffffffffffffffffffffffffffffffffffffff168173ffffffffffffffffffffffffffffffffffffffff1603610a3b576040517f08c379a0000000000000000000000000000000000000000000000000000000008152600401610a3290611d8d565b60405180910390fd5b3373ffffffffffffffffffffffffffffffffffffffff168173ffffffffffffffffffffffffffffffffffffffff1614610aa9576040517f08c379a0000000000000000000000000000000000000000000000000000000008152600401610aa09061224f565b60405180910390fd5b60003342604051602001610abe92919061230a565b6040516020818303038152906040528051906020012060001c90506040518060600160405280868152602001826bffffffffffffffffffffffff16815260200185815250600260008473ffffffffffffffffffffffffffffffffffffffff1673ffffffffffffffffffffffffffffffffffffffff1681526020019081526020016000206000836bffffffffffffffffffffffff166bffffffffffffffffffffffff1681526020019081526020016000206000820151816000019081610b8391906124e2565b5060208201518160010160006101000a8154816bffffffffffffffffffffffff02191690836bffffffffffffffffffffffff1602179055506040820151816002019081610bd091906124e2565b50905050600360008373ffffffffffffffffffffffffffffffffffffffff1673ffffffffffffffffffffffffffffffffffffffff168152602001908152602001600020819080600181540180825580915050600190039060005260206000209060029182820401919006600c029091909190916101000a8154816bffffffffffffffffffffffff02191690836bffffffffffffffffffffffff1602179055503373ffffffffffffffffffffffffffffffffffffffff167f467cd1c570d9a472197110eb6dfe131b733f499240d742f3577553d02a2e4b4b868684604051610cb9939291906125b4565b60405180910390a280925050509392505050565b606080600033905060008060008373ffffffffffffffffffffffffffffffffffffffff1673ffffffffffffffffffffffffffffffffffffffff1681526020019081526020016000206000018054610d2390611e0b565b905011610d65576040517f08c379a0000000000000000000000000000000000000000000000000000000008152600401610d5c90611d8d565b60405180910390fd5b6000600360008373ffffffffffffffffffffffffffffffffffffffff1673ffffffffffffffffffffffffffffffffffffffff168152602001908152602001600020805480602002602001604051908101604052809291908181526020018280548015610e2c57602002820191906000526020600020906000905b82829054906101000a90046bffffffffffffffffffffffff166bffffffffffffffffffffffff16815260200190600c0190602082600b01049283019260010382029150808411610ddf5790505b505050505090506000815167ffffffffffffffff811115610e5057610e4f611624565b5b604051908082528060200260200182016040528015610e8357816020015b6060815260200190600190039081610e6e5790505b50905060005b82518110156110c6576000838281518110610ea757610ea6611dad565b5b602002602001015190506000600260008773ffffffffffffffffffffffffffffffffffffffff1673ffffffffffffffffffffffffffffffffffffffff1681526020019081526020016000206000836bffffffffffffffffffffffff166bffffffffffffffffffffffff168152602001908152602001600020604051806060016040529081600082018054610f3a90611e0b565b80601f0160208091040260200160405190810160405280929190818152602001828054610f6690611e0b565b8015610fb35780601f10610f8857610100808354040283529160200191610fb3565b820191906000526020600020905b815481529060010190602001808311610f9657829003601f168201915b505050505081526020016001820160009054906101000a90046bffffffffffffffffffffffff166bffffffffffffffffffffffff166bffffffffffffffffffffffff16815260200160028201805461100a90611e0b565b80601f016020809104026020016040519081016040528092919081815260200182805461103690611e0b565b80156110835780601f1061105857610100808354040283529160200191611083565b820191906000526020600020905b81548152906001019060200180831161106657829003601f168201915b505050505081525050905080600001518484815181106110a6576110a5611dad565b5b6020026020010181905250505080806110be90611e75565b915050610e89565b508181945094505050509091565b6060600082511161111a576040517f08c379a000000000000000000000000000000000000000000000000000000000815260040161111190612645565b60405180910390fd5b600060023384604051602001611131929190612665565b60405160208183030381529060405260405161114d91906126d4565b602060405180830381855afa15801561116a573d6000803e3d6000fd5b5050506040513d601f19601f8201168201806040525081019061118d9190612721565b9050600061119a8261140c565b905060008151116111e0576040517f08c379a00000000000000000000000000000000000000000000000000000000081526004016111d7906120bf565b60405180910390fd5b60008060003373ffffffffffffffffffffffffffffffffffffffff1673ffffffffffffffffffffffffffffffffffffffff168152602001908152602001600020600001805461122e90611e0b565b905014611270576040517f08c379a00000000000000000000000000000000000000000000000000000000081526004016112679061279a565b60405180910390fd5b60405180606001604052808581526020018281526020013373ffffffffffffffffffffffffffffffffffffffff168152506000803373ffffffffffffffffffffffffffffffffffffffff1673ffffffffffffffffffffffffffffffffffffffff16815260200190815260200160002060008201518160000190816112f491906124e2565b50602082015181600101908161130a91906124e2565b5060408201518160020160006101000a81548173ffffffffffffffffffffffffffffffffffffffff021916908373ffffffffffffffffffffffffffffffffffffffff160217905550905050336001826040516113669190611d2a565b908152602001604051809103902060006101000a81548173ffffffffffffffffffffffffffffffffffffffff021916908373ffffffffffffffffffffffffffffffffffffffff1602179055503373ffffffffffffffffffffffffffffffffffffffff167f152b7378788bad0850715239299cecec0ad8e6f1e7aa22a958dea87ae7d3014785836040516113fa929190611a1c565b60405180910390a28092505050919050565b6060600080604067ffffffffffffffff81111561142c5761142b611624565b5b6040519080825280601f01601f19166020018201604052801561145e5781602001600182028036833780820191505090505b509050600091505b60208260ff16101561157f576000848360ff166020811061148a57611489611dad565b5b1a60f81b60f81c90506114a86010826114a391906127f6565b611589565b826002856114b69190612827565b60ff16815181106114ca576114c9611dad565b5b60200101907effffffffffffffffffffffffffffffffffffffffffffffffffffffffffffff1916908160001a90535061150e6010826115099190612864565b611589565b82600160028661151e9190612827565b6115289190612895565b60ff168151811061153c5761153b611dad565b5b60200101907effffffffffffffffffffffffffffffffffffffffffffffffffffffffffffff1916908160001a905350508180611577906128ca565b925050611466565b8092505050919050565b6000600a8260ff1610156115ae576030826115a49190612895565b60f81b90506115c1565b6057826115bb9190612895565b60f81b90505b919050565b60405180606001604052806060815260200160006bffffffffffffffffffffffff168152602001606081525090565b6000604051905090565b600080fd5b600080fd5b600080fd5b600080fd5b6000601f19601f8301169050919050565b7f4e487b7100000000000000000000000000000000000000000000000000000000600052604160045260246000fd5b61165c82611613565b810181811067ffffffffffffffff8211171561167b5761167a611624565b5b80604052505050565b600061168e6115f5565b905061169a8282611653565b919050565b600067ffffffffffffffff8211156116ba576116b9611624565b5b6116c382611613565b9050602081019050919050565b82818337600083830152505050565b60006116f26116ed8461169f565b611684565b90508281526020810184848401111561170e5761170d61160e565b5b6117198482856116d0565b509392505050565b600082601f83011261173657611735611609565b5b81356117468482602086016116df565b91505092915050565b600060208284031215611765576117646115ff565b5b600082013567ffffffffffffffff81111561178357611782611604565b5b61178f84828501611721565b91505092915050565b600081519050919050565b600082825260208201905092915050565b6000819050602082019050919050565b600081519050919050565b600082825260208201905092915050565b60005b838110156117fe5780820151818401526020810190506117e3565b60008484015250505050565b6000611815826117c4565b61181f81856117cf565b935061182f8185602086016117e0565b61183881611613565b840191505092915050565b60006bffffffffffffffffffffffff82169050919050565b61186481611843565b82525050565b60006060830160008301518482036000860152611887828261180a565b915050602083015161189c602086018261185b565b50604083015184820360408601526118b4828261180a565b9150508091505092915050565b60006118cd838361186a565b905092915050565b6000602082019050919050565b60006118ed82611798565b6118f781856117a3565b935083602082028501611909856117b4565b8060005b85811015611945578484038952815161192685826118c1565b9450611931836118d5565b925060208a0199505060018101905061190d565b50829750879550505050505092915050565b6000602082019050818103600083015261197181846118e2565b905092915050565b61198281611843565b811461198d57600080fd5b50565b60008135905061199f81611979565b92915050565b6000602082840312156119bb576119ba6115ff565b5b60006119c984828501611990565b91505092915050565b600082825260208201905092915050565b60006119ee826117c4565b6119f881856119d2565b9350611a088185602086016117e0565b611a1181611613565b840191505092915050565b60006040820190508181036000830152611a3681856119e3565b90508181036020830152611a4a81846119e3565b90509392505050565b600080600060608486031215611a6c57611a6b6115ff565b5b600084013567ffffffffffffffff811115611a8a57611a89611604565b5b611a9686828701611721565b935050602084013567ffffffffffffffff811115611ab757611ab6611604565b5b611ac386828701611721565b925050604084013567ffffffffffffffff811115611ae457611ae3611604565b5b611af086828701611721565b9150509250925092565b611b0381611843565b82525050565b6000602082019050611b1e6000830184611afa565b92915050565b600081519050919050565b600082825260208201905092915050565b6000819050602082019050919050565b6000611b5c838361185b565b60208301905092915050565b6000602082019050919050565b6000611b8082611b24565b611b8a8185611b2f565b9350611b9583611b40565b8060005b83811015611bc6578151611bad8882611b50565b9750611bb883611b68565b925050600181019050611b99565b5085935050505092915050565b600081519050919050565b600082825260208201905092915050565b6000819050602082019050919050565b6000611c0b838361180a565b905092915050565b6000602082019050919050565b6000611c2b82611bd3565b611c358185611bde565b935083602082028501611c4785611bef565b8060005b85811015611c835784840389528151611c648582611bff565b9450611c6f83611c13565b925060208a01995050600181019050611c4b565b50829750879550505050505092915050565b60006040820190508181036000830152611caf8185611b75565b90508181036020830152611cc38184611c20565b90509392505050565b60006020820190508181036000830152611ce681846119e3565b905092915050565b600081905092915050565b6000611d04826117c4565b611d0e8185611cee565b9350611d1e8185602086016117e0565b80840191505092915050565b6000611d368284611cf9565b915081905092915050565b7f436f6d70616e7920646f6573206e6f742065786973742e000000000000000000600082015250565b6000611d776017836119d2565b9150611d8282611d41565b602082019050919050565b60006020820190508181036000830152611da681611d6a565b9050919050565b7f4e487b7100000000000000000000000000000000000000000000000000000000600052603260045260246000fd5b7f4e487b7100000000000000000000000000000000000000000000000000000000600052602260045260246000fd5b60006002820490506001821680611e2357607f821691505b602082108103611e3657611e35611ddc565b5b50919050565b7f4e487b7100000000000000000000000000000000000000000000000000000000600052601160045260246000fd5b6000819050919050565b6000611e8082611e6b565b91507fffffffffffffffffffffffffffffffffffffffffffffffffffffffffffffffff8203611eb257611eb1611e3c565b5b600182019050919050565b7f50726f64756374204944206d7573742062652067726561746572207468616e2060008201527f7a65726f2e000000000000000000000000000000000000000000000000000000602082015250565b6000611f196025836119d2565b9150611f2482611ebd565b604082019050919050565b60006020820190508181036000830152611f4881611f0c565b9050919050565b7f50726f6475637420646f6573206e6f742065786973742e000000000000000000600082015250565b6000611f856017836119d2565b9150611f9082611f4f565b602082019050919050565b60006020820190508181036000830152611fb481611f78565b9050919050565b7f4f6e6c7920746865206f776e6572206f662074686520636f6d70616e7920636160008201527f6e2063616c6c20746869732066756e6374696f6e2e0000000000000000000000602082015250565b60006120176035836119d2565b915061202282611fbb565b604082019050919050565b600060208201905081810360008301526120468161200a565b9050919050565b7f526567697374726174696f6e206e756d6265722063616e6e6f7420626520656d60008201527f7074792e00000000000000000000000000000000000000000000000000000000602082015250565b60006120a96024836119d2565b91506120b48261204d565b604082019050919050565b600060208201905081810360008301526120d88161209c565b9050919050565b7f50726f64756374206e616d652063616e6e6f7420626520656d7074792e000000600082015250565b6000612115601d836119d2565b9150612120826120df565b602082019050919050565b6000602082019050818103600083015261214481612108565b9050919050565b7f50726f64756374206465736372697074696f6e2063616e6e6f7420626520656d60008201527f7074792e00000000000000000000000000000000000000000000000000000000602082015250565b60006121a76024836119d2565b91506121b28261214b565b604082019050919050565b600060208201905081810360008301526121d68161219a565b9050919050565b7f4f6e6c792074686520636f6d70616e79206f776e65722063616e20616464207060008201527f726f64756374732e000000000000000000000000000000000000000000000000602082015250565b60006122396028836119d2565b9150612244826121dd565b604082019050919050565b600060208201905081810360008301526122688161222c565b9050919050565b600073ffffffffffffffffffffffffffffffffffffffff82169050919050565b600061229a8261226f565b9050919050565b60008160601b9050919050565b60006122b9826122a1565b9050919050565b60006122cb826122ae565b9050919050565b6122e36122de8261228f565b6122c0565b82525050565b6000819050919050565b6123046122ff82611e6b565b6122e9565b82525050565b600061231682856122d2565b60148201915061232682846122f3565b6020820191508190509392505050565b60008190508160005260206000209050919050565b60006020601f8301049050919050565b600082821b905092915050565b6000600883026123987fffffffffffffffffffffffffffffffffffffffffffffffffffffffffffffffff8261235b565b6123a2868361235b565b95508019841693508086168417925050509392505050565b6000819050919050565b60006123df6123da6123d584611e6b565b6123ba565b611e6b565b9050919050565b6000819050919050565b6123f9836123c4565b61240d612405826123e6565b848454612368565b825550505050565b600090565b612422612415565b61242d8184846123f0565b505050565b5b818110156124515761244660008261241a565b600181019050612433565b5050565b601f8211156124965761246781612336565b6124708461234b565b8101602085101561247f578190505b61249361248b8561234b565b830182612432565b50505b505050565b600082821c905092915050565b60006124b96000198460080261249b565b1980831691505092915050565b60006124d283836124a8565b9150826002028217905092915050565b6124eb826117c4565b67ffffffffffffffff81111561250457612503611624565b5b61250e8254611e0b565b612519828285612455565b600060209050601f83116001811461254c576000841561253a578287015190505b61254485826124c6565b8655506125ac565b601f19841661255a86612336565b60005b828110156125825784890151825560018201915060208501945060208101905061255d565b8683101561259f578489015161259b601f8916826124a8565b8355505b6001600288020188555050505b505050505050565b600060608201905081810360008301526125ce81866119e3565b905081810360208301526125e281856119e3565b90506125f16040830184611afa565b949350505050565b7f436f6d70616e79206e616d652063616e6e6f7420626520656d7074792e000000600082015250565b600061262f601d836119d2565b915061263a826125f9565b602082019050919050565b6000602082019050818103600083015261265e81612622565b9050919050565b600061267182856122d2565b6014820191506126818284611cf9565b91508190509392505050565b600081519050919050565b600081905092915050565b60006126ae8261268d565b6126b88185612698565b93506126c88185602086016117e0565b80840191505092915050565b60006126e082846126a3565b915081905092915050565b6000819050919050565b6126fe816126eb565b811461270957600080fd5b50565b60008151905061271b816126f5565b92915050565b600060208284031215612737576127366115ff565b5b60006127458482850161270c565b91505092915050565b7f436f6d70616e7920616c7265616479206578697374732e000000000000000000600082015250565b60006127846017836119d2565b915061278f8261274e565b602082019050919050565b600060208201905081810360008301526127b381612777565b9050919050565b600060ff82169050919050565b7f4e487b7100000000000000000000000000000000000000000000000000000000600052601260045260246000fd5b6000612801826127ba565b915061280c836127ba565b92508261281c5761281b6127c7565b5b828204905092915050565b6000612832826127ba565b915061283d836127ba565b925082820261284b816127ba565b915080821461285d5761285c611e3c565b5b5092915050565b600061286f826127ba565b915061287a836127ba565b92508261288a576128896127c7565b5b828206905092915050565b60006128a0826127ba565b91506128ab836127ba565b9250828201905060ff8111156128c4576128c3611e3c565b5b92915050565b60006128d5826127ba565b915060ff82036128e8576128e7611e3c565b5b60018201905091905056fea26469706673582212203d9e99c7c9b6674d6ec8042378eb6935e256eebe7258b7998da031b6e936899c64736f6c63430008130033",
  "immutableReferences": {},
  "source": "// SPDX-License-Identifier: GPL-3.0\r\n\r\npragma solidity >=0.5.0 <0.9.0;\r\n\r\ncontract Counterfeit {\r\n    \r\n    struct Company {\r\n        string name;\r\n        string registrationNumber;\r\n        address owner;\r\n    }\r\n    \r\n    struct Product {\r\n        string name;\r\n        uint96 productId;\r\n        string description;\r\n    }\r\n    \r\n    mapping (address => Company) companies;\r\n    mapping (string => address) companyAddresses;\r\n    mapping (address => mapping(uint96 => Product)) companyProducts;\r\n    mapping (address => uint96[]) companyProductIds;\r\n    \r\n    event CompanyCreated(address indexed owner, string name, string registrationNumber);\r\n    event ProductAdded(address indexed owner, string name, string description, uint96 productId);\r\n    \r\n    modifier onlyOwner {\r\n        require(msg.sender == companies[msg.sender].owner, \"Only the owner of the company can call this function.\");\r\n        _;\r\n    }\r\n    \r\n    function createCompany(string memory _name) public returns (string memory) {\r\n        require(bytes(_name).length > 0, \"Company name cannot be empty.\");\r\n        bytes32 hash = sha256(abi.encodePacked(msg.sender, _name));\r\n        string memory regNumber = bytes32ToString(hash);\r\n        require(bytes(regNumber).length > 0, \"Registration number cannot be empty.\");\r\n        require(bytes(companies[msg.sender].name).length == 0, \"Company already exists.\");\r\n        companies[msg.sender] = Company(_name, regNumber, msg.sender);\r\n        companyAddresses[regNumber] = msg.sender;\r\n        emit CompanyCreated(msg.sender, _name, regNumber);\r\n        return regNumber;\r\n    }\r\n    \r\n    function createProduct(string memory _regNumber, string memory _name, string memory _description) public onlyOwner returns (uint96) {\r\n        require(bytes(_regNumber).length > 0, \"Registration number cannot be empty.\");\r\n        require(bytes(_name).length > 0, \"Product name cannot be empty.\");\r\n        require(bytes(_description).length > 0, \"Product description cannot be empty.\");\r\n        address companyAddress = companyAddresses[_regNumber];\r\n        require(companyAddress != address(0), \"Company does not exist.\");\r\n        require(companyAddress == msg.sender, \"Only the company owner can add products.\");\r\n        uint96 productId = uint96(uint256(keccak256(abi.encodePacked(msg.sender, block.timestamp))));\r\n        companyProducts[companyAddress][productId] = Product(_name, productId, _description);\r\n        companyProductIds[companyAddress].push(productId);\r\n        emit ProductAdded(msg.sender, _name, _description, productId);\r\n        return productId;\r\n    }\r\n    \r\n    function getProductById(uint96 _productId) public view returns (string memory, string memory) {\r\n        require(_productId > 0, \"Product ID must be greater than zero.\");\r\n        Product memory product = companyProducts[msg.sender][_productId];\r\n        require(bytes(product.name).length > 0, \"Product does not exist.\");\r\n        return (product.name, product.description);\r\n    }\r\n    function getCompanyProductIds() public view returns (uint96[] memory, string[] memory) {\r\n        address companyAddress = msg.sender;\r\n        require(bytes(companies[companyAddress].name).length > 0, \"Company does not exist.\");\r\n        \r\n        uint96[] memory productIds = companyProductIds[companyAddress];\r\n        string[] memory productNames = new string[](productIds.length);\r\n    \r\n        for (uint i = 0; i < productIds.length; i++) {\r\n            uint96 productId = productIds[i];\r\n            Product memory product = companyProducts[companyAddress][productId];\r\n            productNames[i] = product.name;\r\n        }\r\n        \r\n        return (productIds, productNames);\r\n    }\r\n    function getProductsByRegNumber(string memory _regNumber) public view returns (Product[] memory) {\r\n    address companyAddress = companyAddresses[_regNumber];\r\n    require(companyAddress != address(0), \"Company does not exist.\");\r\n    \r\n    uint96[] memory productIds = companyProductIds[companyAddress];\r\n    Product[] memory products = new Product[](productIds.length);\r\n    \r\n    for (uint i = 0; i < productIds.length; i++) {\r\n        uint96 productId = productIds[i];\r\n        Product memory product = companyProducts[companyAddress][productId];\r\n        products[i] = product;\r\n    }\r\n    return products;\r\n}\r\n\r\n    \r\nfunction bytes32ToString(bytes32 _bytes32) internal pure returns (string memory) {\r\n    uint8 i = 0;\r\n    bytes memory bytesArray = new bytes(64);\r\n    for (i = 0; i < 32; i++) {\r\n        uint8 value = uint8(_bytes32[i]);\r\n        bytesArray[i * 2] = toByte(value / 16);\r\n        bytesArray[(i * 2) + 1] = toByte(value % 16);\r\n    }\r\n    return string(bytesArray);\r\n}\r\n\r\nfunction toByte(uint8 _uint8) internal pure returns (bytes1) {\r\n    if (_uint8 < 10) {\r\n        return bytes1(_uint8 + 48);\r\n    } else {\r\n        return bytes1(_uint8 + 87);\r\n    }\r\n}\r\n\r\n\r\n}",
  "sourcePath": "C:\\Users\\Dell\\OneDrive\\Desktop\\Counter_final\\contracts\\counterfeit.sol",
  "compiler": {
    "name": "solc",
    "version": "0.8.19+commit.7dd6d404.Emscripten.clang"
  },
  "schemaVersion": "3.4.13",
  "updatedAt": "2023-03-25T09:11:04.982Z",
  "networkType": "ethereum",
  "devdoc": {
    "kind": "dev",
    "methods": {},
    "version": 1
  },
  "userdoc": {
    "kind": "user",
    "methods": {},
    "version": 1
  }
}