{
  "contractName": "Counterfeit",
  "abi": [
    {
      "anonymous": false,
      "inputs": [
        {
          "indexed": true,
          "internalType": "address",
          "name": "owner",
          "type": "address"
        },
        {
          "indexed": false,
          "internalType": "string",
          "name": "name",
          "type": "string"
        },
        {
          "indexed": false,
          "internalType": "string",
          "name": "registrationNumber",
          "type": "string"
        }
      ],
      "name": "CompanyCreated",
      "type": "event"
    },
    {
      "anonymous": false,
      "inputs": [
        {
          "indexed": true,
          "internalType": "address",
          "name": "owner",
          "type": "address"
        },
        {
          "indexed": false,
          "internalType": "string",
          "name": "name",
          "type": "string"
        },
        {
          "indexed": false,
          "internalType": "string",
          "name": "description",
          "type": "string"
        },
        {
          "indexed": false,
          "internalType": "uint96",
          "name": "productId",
          "type": "uint96"
        }
      ],
      "name": "ProductAdded",
      "type": "event"
    },
    {
      "inputs": [
        {
          "internalType": "string",
          "name": "_name",
          "type": "string"
        }
      ],
      "name": "createCompany",
      "outputs": [
        {
          "internalType": "string",
          "name": "",
          "type": "string"
        }
      ],
      "stateMutability": "nonpayable",
      "type": "function"
    },
    {
      "inputs": [
        {
          "internalType": "string",
          "name": "_regNumber",
          "type": "string"
        },
        {
          "internalType": "string",
          "name": "_name",
          "type": "string"
        },
        {
          "internalType": "string",
          "name": "_description",
          "type": "string"
        }
      ],
      "name": "createProduct",
      "outputs": [
        {
          "internalType": "uint96",
          "name": "",
          "type": "uint96"
        }
      ],
      "stateMutability": "nonpayable",
      "type": "function"
    },
    {
      "inputs": [
        {
          "internalType": "uint96",
          "name": "_productId",
          "type": "uint96"
        }
      ],
      "name": "getProductById",
      "outputs": [
        {
          "internalType": "string",
          "name": "",
          "type": "string"
        },
        {
          "internalType": "string",
          "name": "",
          "type": "string"
        }
      ],
      "stateMutability": "view",
      "type": "function",
      "constant": true
    }
  ],
  "bytecode": "0x608060405234801561001057600080fd5b50611e6f806100206000396000f3fe608060405234801561001057600080fd5b50600436106100415760003560e01c80636342664014610046578063d768468b14610077578063fd7f611e146100a7575b600080fd5b610060600480360381019061005b9190610ecf565b6100d7565b60405161006e929190610f8c565b60405180910390f35b610091600480360381019061008c91906110f8565b6104a4565b60405161009e91906111ae565b60405180910390f35b6100c160048036038101906100bc91906111c9565b610985565b6040516100ce9190611212565b60405180910390f35b6060806000836bffffffffffffffffffffffff161161012b576040517f08c379a0000000000000000000000000000000000000000000000000000000008152600401610122906112a6565b60405180910390fd5b600080600360003373ffffffffffffffffffffffffffffffffffffffff1673ffffffffffffffffffffffffffffffffffffffff16815260200190815260200160002080549050905060005b81811015610241576000600360003373ffffffffffffffffffffffffffffffffffffffff1673ffffffffffffffffffffffffffffffffffffffff16815260200190815260200160002082815481106101d1576101d06112c6565b5b9060005260206000209060029182820401919006600c029054906101000a90046bffffffffffffffffffffffff169050866bffffffffffffffffffffffff16816bffffffffffffffffffffffff160361022d5733935050610241565b5080806102399061132e565b915050610176565b50600073ffffffffffffffffffffffffffffffffffffffff168273ffffffffffffffffffffffffffffffffffffffff16036102b1576040517f08c379a00000000000000000000000000000000000000000000000000000000081526004016102a8906113c2565b60405180910390fd5b6000600260008473ffffffffffffffffffffffffffffffffffffffff1673ffffffffffffffffffffffffffffffffffffffff1681526020019081526020016000206000876bffffffffffffffffffffffff166bffffffffffffffffffffffff16815260200190815260200160002060405180606001604052908160008201805461033a90611411565b80601f016020809104026020016040519081016040528092919081815260200182805461036690611411565b80156103b35780601f10610388576101008083540402835291602001916103b3565b820191906000526020600020905b81548152906001019060200180831161039657829003601f168201915b505050505081526020016001820160009054906101000a90046bffffffffffffffffffffffff166bffffffffffffffffffffffff166bffffffffffffffffffffffff16815260200160028201805461040a90611411565b80601f016020809104026020016040519081016040528092919081815260200182805461043690611411565b80156104835780601f1061045857610100808354040283529160200191610483565b820191906000526020600020905b81548152906001019060200180831161046657829003601f168201915b50505050508152505090508060000151816040015194509450505050915091565b60008060003373ffffffffffffffffffffffffffffffffffffffff1673ffffffffffffffffffffffffffffffffffffffff16815260200190815260200160002060020160009054906101000a900473ffffffffffffffffffffffffffffffffffffffff1673ffffffffffffffffffffffffffffffffffffffff163373ffffffffffffffffffffffffffffffffffffffff1614610575576040517f08c379a000000000000000000000000000000000000000000000000000000000815260040161056c906114b4565b60405180910390fd5b60008451116105b9576040517f08c379a00000000000000000000000000000000000000000000000000000000081526004016105b090611546565b60405180910390fd5b60008351116105fd576040517f08c379a00000000000000000000000000000000000000000000000000000000081526004016105f4906115b2565b60405180910390fd5b6000825111610641576040517f08c379a000000000000000000000000000000000000000000000000000000000815260040161063890611644565b60405180910390fd5b600060018560405161065391906116a0565b908152602001604051809103902060009054906101000a900473ffffffffffffffffffffffffffffffffffffffff169050600073ffffffffffffffffffffffffffffffffffffffff168173ffffffffffffffffffffffffffffffffffffffff16036106f3576040517f08c379a00000000000000000000000000000000000000000000000000000000081526004016106ea90611703565b60405180910390fd5b3373ffffffffffffffffffffffffffffffffffffffff168173ffffffffffffffffffffffffffffffffffffffff1614610761576040517f08c379a000000000000000000000000000000000000000000000000000000000815260040161075890611795565b60405180910390fd5b60003342604051602001610776929190611850565b6040516020818303038152906040528051906020012060001c90506040518060600160405280868152602001826bffffffffffffffffffffffff16815260200185815250600260008473ffffffffffffffffffffffffffffffffffffffff1673ffffffffffffffffffffffffffffffffffffffff1681526020019081526020016000206000836bffffffffffffffffffffffff166bffffffffffffffffffffffff168152602001908152602001600020600082015181600001908161083b9190611a28565b5060208201518160010160006101000a8154816bffffffffffffffffffffffff02191690836bffffffffffffffffffffffff16021790555060408201518160020190816108889190611a28565b50905050600360008373ffffffffffffffffffffffffffffffffffffffff1673ffffffffffffffffffffffffffffffffffffffff168152602001908152602001600020819080600181540180825580915050600190039060005260206000209060029182820401919006600c029091909190916101000a8154816bffffffffffffffffffffffff02191690836bffffffffffffffffffffffff1602179055503373ffffffffffffffffffffffffffffffffffffffff167f467cd1c570d9a472197110eb6dfe131b733f499240d742f3577553d02a2e4b4b86868460405161097193929190611afa565b60405180910390a280925050509392505050565b606060008251116109cb576040517f08c379a00000000000000000000000000000000000000000000000000000000081526004016109c290611b8b565b60405180910390fd5b6000600233846040516020016109e2929190611bab565b6040516020818303038152906040526040516109fe9190611c1a565b602060405180830381855afa158015610a1b573d6000803e3d6000fd5b5050506040513d601f19601f82011682018060405250810190610a3e9190611c67565b90506000610a4b82610cbd565b90506000815111610a91576040517f08c379a0000000000000000000000000000000000000000000000000000000008152600401610a8890611546565b60405180910390fd5b60008060003373ffffffffffffffffffffffffffffffffffffffff1673ffffffffffffffffffffffffffffffffffffffff1681526020019081526020016000206000018054610adf90611411565b905014610b21576040517f08c379a0000000000000000000000000000000000000000000000000000000008152600401610b1890611ce0565b60405180910390fd5b60405180606001604052808581526020018281526020013373ffffffffffffffffffffffffffffffffffffffff168152506000803373ffffffffffffffffffffffffffffffffffffffff1673ffffffffffffffffffffffffffffffffffffffff1681526020019081526020016000206000820151816000019081610ba59190611a28565b506020820151816001019081610bbb9190611a28565b5060408201518160020160006101000a81548173ffffffffffffffffffffffffffffffffffffffff021916908373ffffffffffffffffffffffffffffffffffffffff16021790555090505033600182604051610c1791906116a0565b908152602001604051809103902060006101000a81548173ffffffffffffffffffffffffffffffffffffffff021916908373ffffffffffffffffffffffffffffffffffffffff1602179055503373ffffffffffffffffffffffffffffffffffffffff167f152b7378788bad0850715239299cecec0ad8e6f1e7aa22a958dea87ae7d301478583604051610cab929190610f8c565b60405180910390a28092505050919050565b6060600080604067ffffffffffffffff811115610cdd57610cdc610fcd565b5b6040519080825280601f01601f191660200182016040528015610d0f5781602001600182028036833780820191505090505b509050600091505b60208260ff161015610e30576000848360ff1660208110610d3b57610d3a6112c6565b5b1a60f81b60f81c9050610d59601082610d549190611d3c565b610e3a565b82600285610d679190611d6d565b60ff1681518110610d7b57610d7a6112c6565b5b60200101907effffffffffffffffffffffffffffffffffffffffffffffffffffffffffffff1916908160001a905350610dbf601082610dba9190611daa565b610e3a565b826001600286610dcf9190611d6d565b610dd99190611ddb565b60ff1681518110610ded57610dec6112c6565b5b60200101907effffffffffffffffffffffffffffffffffffffffffffffffffffffffffffff1916908160001a905350508180610e2890611e10565b925050610d17565b8092505050919050565b6000600a8260ff161015610e5f57603082610e559190611ddb565b60f81b9050610e72565b605782610e6c9190611ddb565b60f81b90505b919050565b6000604051905090565b600080fd5b600080fd5b60006bffffffffffffffffffffffff82169050919050565b610eac81610e8b565b8114610eb757600080fd5b50565b600081359050610ec981610ea3565b92915050565b600060208284031215610ee557610ee4610e81565b5b6000610ef384828501610eba565b91505092915050565b600081519050919050565b600082825260208201905092915050565b60005b83811015610f36578082015181840152602081019050610f1b565b60008484015250505050565b6000601f19601f8301169050919050565b6000610f5e82610efc565b610f688185610f07565b9350610f78818560208601610f18565b610f8181610f42565b840191505092915050565b60006040820190508181036000830152610fa68185610f53565b90508181036020830152610fba8184610f53565b90509392505050565b600080fd5b600080fd5b7f4e487b7100000000000000000000000000000000000000000000000000000000600052604160045260246000fd5b61100582610f42565b810181811067ffffffffffffffff8211171561102457611023610fcd565b5b80604052505050565b6000611037610e77565b90506110438282610ffc565b919050565b600067ffffffffffffffff82111561106357611062610fcd565b5b61106c82610f42565b9050602081019050919050565b82818337600083830152505050565b600061109b61109684611048565b61102d565b9050828152602081018484840111156110b7576110b6610fc8565b5b6110c2848285611079565b509392505050565b600082601f8301126110df576110de610fc3565b5b81356110ef848260208601611088565b91505092915050565b60008060006060848603121561111157611110610e81565b5b600084013567ffffffffffffffff81111561112f5761112e610e86565b5b61113b868287016110ca565b935050602084013567ffffffffffffffff81111561115c5761115b610e86565b5b611168868287016110ca565b925050604084013567ffffffffffffffff81111561118957611188610e86565b5b611195868287016110ca565b9150509250925092565b6111a881610e8b565b82525050565b60006020820190506111c3600083018461119f565b92915050565b6000602082840312156111df576111de610e81565b5b600082013567ffffffffffffffff8111156111fd576111fc610e86565b5b611209848285016110ca565b91505092915050565b6000602082019050818103600083015261122c8184610f53565b905092915050565b7f50726f64756374204944206d7573742062652067726561746572207468616e2060008201527f7a65726f2e000000000000000000000000000000000000000000000000000000602082015250565b6000611290602583610f07565b915061129b82611234565b604082019050919050565b600060208201905081810360008301526112bf81611283565b9050919050565b7f4e487b7100000000000000000000000000000000000000000000000000000000600052603260045260246000fd5b7f4e487b7100000000000000000000000000000000000000000000000000000000600052601160045260246000fd5b6000819050919050565b600061133982611324565b91507fffffffffffffffffffffffffffffffffffffffffffffffffffffffffffffffff820361136b5761136a6112f5565b5b600182019050919050565b7f50726f6475637420646f6573206e6f742065786973742e000000000000000000600082015250565b60006113ac601783610f07565b91506113b782611376565b602082019050919050565b600060208201905081810360008301526113db8161139f565b9050919050565b7f4e487b7100000000000000000000000000000000000000000000000000000000600052602260045260246000fd5b6000600282049050600182168061142957607f821691505b60208210810361143c5761143b6113e2565b5b50919050565b7f4f6e6c7920746865206f776e6572206f662074686520636f6d70616e7920636160008201527f6e2063616c6c20746869732066756e6374696f6e2e0000000000000000000000602082015250565b600061149e603583610f07565b91506114a982611442565b604082019050919050565b600060208201905081810360008301526114cd81611491565b9050919050565b7f526567697374726174696f6e206e756d6265722063616e6e6f7420626520656d60008201527f7074792e00000000000000000000000000000000000000000000000000000000602082015250565b6000611530602483610f07565b915061153b826114d4565b604082019050919050565b6000602082019050818103600083015261155f81611523565b9050919050565b7f50726f64756374206e616d652063616e6e6f7420626520656d7074792e000000600082015250565b600061159c601d83610f07565b91506115a782611566565b602082019050919050565b600060208201905081810360008301526115cb8161158f565b9050919050565b7f50726f64756374206465736372697074696f6e2063616e6e6f7420626520656d60008201527f7074792e00000000000000000000000000000000000000000000000000000000602082015250565b600061162e602483610f07565b9150611639826115d2565b604082019050919050565b6000602082019050818103600083015261165d81611621565b9050919050565b600081905092915050565b600061167a82610efc565b6116848185611664565b9350611694818560208601610f18565b80840191505092915050565b60006116ac828461166f565b915081905092915050565b7f436f6d70616e7920646f6573206e6f742065786973742e000000000000000000600082015250565b60006116ed601783610f07565b91506116f8826116b7565b602082019050919050565b6000602082019050818103600083015261171c816116e0565b9050919050565b7f4f6e6c792074686520636f6d70616e79206f776e65722063616e20616464207060008201527f726f64756374732e000000000000000000000000000000000000000000000000602082015250565b600061177f602883610f07565b915061178a82611723565b604082019050919050565b600060208201905081810360008301526117ae81611772565b9050919050565b600073ffffffffffffffffffffffffffffffffffffffff82169050919050565b60006117e0826117b5565b9050919050565b60008160601b9050919050565b60006117ff826117e7565b9050919050565b6000611811826117f4565b9050919050565b611829611824826117d5565b611806565b82525050565b6000819050919050565b61184a61184582611324565b61182f565b82525050565b600061185c8285611818565b60148201915061186c8284611839565b6020820191508190509392505050565b60008190508160005260206000209050919050565b60006020601f8301049050919050565b600082821b905092915050565b6000600883026118de7fffffffffffffffffffffffffffffffffffffffffffffffffffffffffffffffff826118a1565b6118e886836118a1565b95508019841693508086168417925050509392505050565b6000819050919050565b600061192561192061191b84611324565b611900565b611324565b9050919050565b6000819050919050565b61193f8361190a565b61195361194b8261192c565b8484546118ae565b825550505050565b600090565b61196861195b565b611973818484611936565b505050565b5b818110156119975761198c600082611960565b600181019050611979565b5050565b601f8211156119dc576119ad8161187c565b6119b684611891565b810160208510156119c5578190505b6119d96119d185611891565b830182611978565b50505b505050565b600082821c905092915050565b60006119ff600019846008026119e1565b1980831691505092915050565b6000611a1883836119ee565b9150826002028217905092915050565b611a3182610efc565b67ffffffffffffffff811115611a4a57611a49610fcd565b5b611a548254611411565b611a5f82828561199b565b600060209050601f831160018114611a925760008415611a80578287015190505b611a8a8582611a0c565b865550611af2565b601f198416611aa08661187c565b60005b82811015611ac857848901518255600182019150602085019450602081019050611aa3565b86831015611ae55784890151611ae1601f8916826119ee565b8355505b6001600288020188555050505b505050505050565b60006060820190508181036000830152611b148186610f53565b90508181036020830152611b288185610f53565b9050611b37604083018461119f565b949350505050565b7f436f6d70616e79206e616d652063616e6e6f7420626520656d7074792e000000600082015250565b6000611b75601d83610f07565b9150611b8082611b3f565b602082019050919050565b60006020820190508181036000830152611ba481611b68565b9050919050565b6000611bb78285611818565b601482019150611bc7828461166f565b91508190509392505050565b600081519050919050565b600081905092915050565b6000611bf482611bd3565b611bfe8185611bde565b9350611c0e818560208601610f18565b80840191505092915050565b6000611c268284611be9565b915081905092915050565b6000819050919050565b611c4481611c31565b8114611c4f57600080fd5b50565b600081519050611c6181611c3b565b92915050565b600060208284031215611c7d57611c7c610e81565b5b6000611c8b84828501611c52565b91505092915050565b7f436f6d70616e7920616c7265616479206578697374732e000000000000000000600082015250565b6000611cca601783610f07565b9150611cd582611c94565b602082019050919050565b60006020820190508181036000830152611cf981611cbd565b9050919050565b600060ff82169050919050565b7f4e487b7100000000000000000000000000000000000000000000000000000000600052601260045260246000fd5b6000611d4782611d00565b9150611d5283611d00565b925082611d6257611d61611d0d565b5b828204905092915050565b6000611d7882611d00565b9150611d8383611d00565b9250828202611d9181611d00565b9150808214611da357611da26112f5565b5b5092915050565b6000611db582611d00565b9150611dc083611d00565b925082611dd057611dcf611d0d565b5b828206905092915050565b6000611de682611d00565b9150611df183611d00565b9250828201905060ff811115611e0a57611e096112f5565b5b92915050565b6000611e1b82611d00565b915060ff8203611e2e57611e2d6112f5565b5b60018201905091905056fea26469706673582212203844ad71c60d682ef22f0a7f227fcb22341406a823f8c80fc0b325d3762fd79d64736f6c63430008130033",
  "immutableReferences": {},
  "source": "// SPDX-License-Identifier: GPL-3.0\r\n\r\npragma solidity ^0.8.0;\r\n\r\ncontract Counterfeit {\r\n    \r\n    struct Company {\r\n        string name;\r\n        string registrationNumber;\r\n        address owner;\r\n    }\r\n    \r\n    struct Product {\r\n        string name;\r\n        uint96 productId;\r\n        string description;\r\n    }\r\n    \r\n    mapping (address => Company) companies;\r\n    mapping (string => address) companyAddresses;\r\n    mapping (address => mapping(uint96 => Product)) companyProducts;\r\n    mapping (address => uint96[]) companyProductIds;\r\n\r\n     modifier onlyOwner {\r\n        require(msg.sender == companies[msg.sender].owner, \"Only the owner of the company can call this function.\");\r\n        _;\r\n    }\r\n    \r\n    event CompanyCreated(address indexed owner, string name, string registrationNumber);\r\n    event ProductAdded(address indexed owner, string name, string description, uint96 productId);\r\n    \r\n    function createCompany(string memory _name) public returns (string memory) {\r\n        require(bytes(_name).length > 0, \"Company name cannot be empty.\");\r\n        bytes32 hash = sha256(abi.encodePacked(msg.sender, _name));\r\n        string memory regNumber = bytes32ToString(hash);\r\n        require(bytes(regNumber).length > 0, \"Registration number cannot be empty.\");\r\n        require(bytes(companies[msg.sender].name).length == 0, \"Company already exists.\");\r\n        companies[msg.sender] = Company(_name, regNumber, msg.sender);\r\n        companyAddresses[regNumber] = msg.sender;\r\n        emit CompanyCreated(msg.sender, _name, regNumber);\r\n        return regNumber;\r\n    }\r\n    \r\n    function createProduct(string memory _regNumber, string memory _name, string memory _description) public onlyOwner returns (uint96) {\r\n        require(bytes(_regNumber).length > 0, \"Registration number cannot be empty.\");\r\n        require(bytes(_name).length > 0, \"Product name cannot be empty.\");\r\n        require(bytes(_description).length > 0, \"Product description cannot be empty.\");\r\n        address companyAddress = companyAddresses[_regNumber];\r\n        require(companyAddress != address(0), \"Company does not exist.\");\r\n        require(companyAddress == msg.sender, \"Only the company owner can add products.\");\r\n        uint96 productId = uint96(uint256(keccak256(abi.encodePacked(msg.sender, block.timestamp))));\r\n        companyProducts[companyAddress][productId] = Product(_name, productId, _description);\r\n        companyProductIds[companyAddress].push(productId);\r\n        emit ProductAdded(msg.sender, _name, _description, productId);\r\n        return productId;\r\n    }\r\n\r\n    function getProductById(uint96 _productId) public view returns (string memory, string memory) {\r\n    require(_productId > 0, \"Product ID must be greater than zero.\");\r\n    address companyAddress = address(0);\r\n    uint256 len = companyProductIds[msg.sender].length;\r\n    for (uint256 i = 0; i < len; i++) {\r\n        uint96 productId = companyProductIds[msg.sender][i];\r\n        if (productId == _productId) {\r\n            companyAddress = msg.sender;\r\n            break;\r\n        }\r\n    }\r\n    require(companyAddress != address(0), \"Product does not exist.\");\r\n    Product memory product = companyProducts[companyAddress][_productId];\r\n    return (product.name, product.description);\r\n    }\r\n\r\nfunction bytes32ToString(bytes32 _bytes32) internal pure returns (string memory) {\r\n    uint8 i = 0;\r\n    bytes memory bytesArray = new bytes(64);\r\n    for (i = 0; i < 32; i++) {\r\n        uint8 value = uint8(_bytes32[i]);\r\n        bytesArray[i * 2] = toByte(value / 16);\r\n        bytesArray[(i * 2) + 1] = toByte(value % 16);\r\n    }\r\n    return string(bytesArray);\r\n}\r\n\r\nfunction toByte(uint8 _uint8) internal pure returns (bytes1) {\r\n    if (_uint8 < 10) {\r\n        return bytes1(_uint8 + 48);\r\n    } else {\r\n        return bytes1(_uint8 + 87);\r\n    }\r\n}\r\n}",
  "sourcePath": "C:\\Users\\Dell\\OneDrive\\Desktop\\Coutnerfeit\\contracts\\Counterfeit.sol",
  "compiler": {
    "name": "solc",
    "version": "0.8.19+commit.7dd6d404.Emscripten.clang"
  },
  "schemaVersion": "3.4.13",
  "updatedAt": "2023-04-03T07:13:36.069Z",
  "networkType": "ethereum",
  "devdoc": {
    "kind": "dev",
    "methods": {},
    "version": 1
  },
  "userdoc": {
    "kind": "user",
    "methods": {},
    "version": 1
  }
}